{
  "contractName": "PoliceComplaint",
  "abi": [
    {
      "inputs": [
        {
          "internalType": "address",
          "name": "_policestationaddress",
          "type": "address"
        },
        {
          "internalType": "string",
          "name": "_complaintDocHash",
          "type": "string"
        }
      ],
      "name": "fileComplaint",
      "outputs": [],
      "stateMutability": "nonpayable",
      "type": "function"
    },
    {
      "inputs": [
        {
          "internalType": "uint256",
          "name": "_id",
          "type": "uint256"
        },
        {
          "internalType": "string",
          "name": "_FIRdoc",
          "type": "string"
        }
      ],
      "name": "setFir",
      "outputs": [],
      "stateMutability": "nonpayable",
      "type": "function"
    },
    {
      "inputs": [
        {
          "internalType": "uint256",
          "name": "_id",
          "type": "uint256"
        }
      ],
      "name": "setAcceptance",
      "outputs": [],
      "stateMutability": "nonpayable",
      "type": "function"
    },
    {
      "inputs": [
        {
          "internalType": "uint256",
          "name": "_id",
          "type": "uint256"
        },
        {
          "internalType": "string",
          "name": "_spamdoc",
          "type": "string"
        }
      ],
      "name": "setSpam",
      "outputs": [],
      "stateMutability": "nonpayable",
      "type": "function"
    },
    {
      "inputs": [],
      "name": "getComplainerComplaints",
      "outputs": [
        {
          "components": [
            {
              "internalType": "uint256",
              "name": "complaint_id",
              "type": "uint256"
            },
            {
              "internalType": "address",
              "name": "complainer_address",
              "type": "address"
            },
            {
              "internalType": "address",
              "name": "policestation_address",
              "type": "address"
            },
            {
              "internalType": "uint256",
              "name": "filed_date",
              "type": "uint256"
            },
            {
              "internalType": "bool",
              "name": "complaint_accepted",
              "type": "bool"
            },
            {
              "internalType": "uint256",
              "name": "accepted_date",
              "type": "uint256"
            },
            {
              "internalType": "bool",
              "name": "fir_status",
              "type": "bool"
            },
            {
              "internalType": "uint256",
              "name": "fir_date",
              "type": "uint256"
            },
            {
              "internalType": "bool",
              "name": "mark_as_spam",
              "type": "bool"
            },
            {
              "internalType": "uint256",
              "name": "markasspam_date",
              "type": "uint256"
            },
            {
              "internalType": "string",
              "name": "spam_reason_doc",
              "type": "string"
            },
            {
              "internalType": "string",
              "name": "complaint_doc_hash",
              "type": "string"
            },
            {
              "internalType": "string",
              "name": "FIR_doc_hash",
              "type": "string"
            }
          ],
          "internalType": "struct PoliceComplaint.ComplaintInfo[]",
          "name": "",
          "type": "tuple[]"
        }
      ],
      "stateMutability": "view",
      "type": "function"
    }
  ],
  "bytecode": "0x60806040526000805534801561001457600080fd5b50611278806100246000396000f3fe608060405234801561001057600080fd5b50600436106100575760003560e01c8063132812f41461005c5780632b2cc142146100785780636ab8b3381461009457806373b801dd146100b0578063a5fd7783146100ce575b600080fd5b61007660048036038101906100719190610be5565b6100ea565b005b610092600480360381019061008d9190610d58565b6101d1565b005b6100ae60048036038101906100a99190610d58565b610350565b005b6100b8610472565b6040516100c59190611090565b60405180910390f35b6100e860048036038101906100e391906110de565b6107b7565b005b3373ffffffffffffffffffffffffffffffffffffffff16600182815481106101155761011461113a565b5b90600052602060002090600d020160020160009054906101000a900473ffffffffffffffffffffffffffffffffffffffff1673ffffffffffffffffffffffffffffffffffffffff161461016757600080fd5b600180828154811061017c5761017b61113a565b5b90600052602060002090600d020160040160006101000a81548160ff02191690831515021790555042600182815481106101b9576101b861113a565b5b90600052602060002090600d02016005018190555050565b3373ffffffffffffffffffffffffffffffffffffffff16600183815481106101fc576101fb61113a565b5b90600052602060002090600d020160020160009054906101000a900473ffffffffffffffffffffffffffffffffffffffff1673ffffffffffffffffffffffffffffffffffffffff161461024e57600080fd5b60011515600183815481106102665761026561113a565b5b90600052602060002090600d020160040160009054906101000a900460ff161515141580156102cc575060011515600183815481106102a8576102a761113a565b5b90600052602060002090600d020160060160009054906101000a900460ff16151514155b6102d557600080fd5b60018083815481106102ea576102e961113a565b5b90600052602060002090600d020160080160006101000a81548160ff02191690831515021790555080600183815481106103275761032661113a565b5b90600052602060002090600d0201600a01908051906020019061034b929190610a5e565b505050565b3373ffffffffffffffffffffffffffffffffffffffff166001838154811061037b5761037a61113a565b5b90600052602060002090600d020160020160009054906101000a900473ffffffffffffffffffffffffffffffffffffffff1673ffffffffffffffffffffffffffffffffffffffff16146103cd57600080fd5b60018083815481106103e2576103e161113a565b5b90600052602060002090600d020160060160006101000a81548160ff021916908315150217905550806001838154811061041f5761041e61113a565b5b90600052602060002090600d0201600c019080519060200190610443929190610a5e565b5042600183815481106104595761045861113a565b5b90600052602060002090600d0201600701819055505050565b60606001805480602002602001604051908101604052809291908181526020016000905b828210156107ae57838290600052602060002090600d0201604051806101a0016040529081600082015481526020016001820160009054906101000a900473ffffffffffffffffffffffffffffffffffffffff1673ffffffffffffffffffffffffffffffffffffffff1673ffffffffffffffffffffffffffffffffffffffff1681526020016002820160009054906101000a900473ffffffffffffffffffffffffffffffffffffffff1673ffffffffffffffffffffffffffffffffffffffff1673ffffffffffffffffffffffffffffffffffffffff168152602001600382015481526020016004820160009054906101000a900460ff16151515158152602001600582015481526020016006820160009054906101000a900460ff16151515158152602001600782015481526020016008820160009054906101000a900460ff1615151515815260200160098201548152602001600a820180546105f990611198565b80601f016020809104026020016040519081016040528092919081815260200182805461062590611198565b80156106725780601f1061064757610100808354040283529160200191610672565b820191906000526020600020905b81548152906001019060200180831161065557829003601f168201915b50505050508152602001600b8201805461068b90611198565b80601f01602080910402602001604051908101604052809291908181526020018280546106b790611198565b80156107045780601f106106d957610100808354040283529160200191610704565b820191906000526020600020905b8154815290600101906020018083116106e757829003601f168201915b50505050508152602001600c8201805461071d90611198565b80601f016020809104026020016040519081016040528092919081815260200182805461074990611198565b80156107965780601f1061076b57610100808354040283529160200191610796565b820191906000526020600020905b81548152906001019060200180831161077957829003601f168201915b50505050508152505081526020019060010190610496565b50505050905090565b6107bf610ae4565b6000808154809291906107d1906111f9565b9190505581600001818152505033816020019073ffffffffffffffffffffffffffffffffffffffff16908173ffffffffffffffffffffffffffffffffffffffff168152505082816040019073ffffffffffffffffffffffffffffffffffffffff16908173ffffffffffffffffffffffffffffffffffffffff16815250504281606001818152505081816101600181905250600081608001901515908115158152505060008160c00190151590811515815250506000816101000190151590811515815250506040518060200160405280600081525081610180018190525060018190806001815401808255809150506001900390600052602060002090600d02016000909190919091506000820151816000015560208201518160010160006101000a81548173ffffffffffffffffffffffffffffffffffffffff021916908373ffffffffffffffffffffffffffffffffffffffff16021790555060408201518160020160006101000a81548173ffffffffffffffffffffffffffffffffffffffff021916908373ffffffffffffffffffffffffffffffffffffffff1602179055506060820151816003015560808201518160040160006101000a81548160ff02191690831515021790555060a0820151816005015560c08201518160060160006101000a81548160ff02191690831515021790555060e082015181600701556101008201518160080160006101000a81548160ff021916908315150217905550610120820151816009015561014082015181600a019080519060200190610a1a929190610a5e565b5061016082015181600b019080519060200190610a38929190610a5e565b5061018082015181600c019080519060200190610a56929190610a5e565b505050505050565b828054610a6a90611198565b90600052602060002090601f016020900481019282610a8c5760008555610ad3565b82601f10610aa557805160ff1916838001178555610ad3565b82800160010185558215610ad3579182015b82811115610ad2578251825591602001919060010190610ab7565b5b509050610ae09190610b7e565b5090565b604051806101a0016040528060008152602001600073ffffffffffffffffffffffffffffffffffffffff168152602001600073ffffffffffffffffffffffffffffffffffffffff168152602001600081526020016000151581526020016000815260200160001515815260200160008152602001600015158152602001600081526020016060815260200160608152602001606081525090565b5b80821115610b97576000816000905550600101610b7f565b5090565b6000604051905090565b600080fd5b600080fd5b6000819050919050565b610bc281610baf565b8114610bcd57600080fd5b50565b600081359050610bdf81610bb9565b92915050565b600060208284031215610bfb57610bfa610ba5565b5b6000610c0984828501610bd0565b91505092915050565b600080fd5b600080fd5b6000601f19601f8301169050919050565b7f4e487b7100000000000000000000000000000000000000000000000000000000600052604160045260246000fd5b610c6582610c1c565b810181811067ffffffffffffffff82111715610c8457610c83610c2d565b5b80604052505050565b6000610c97610b9b565b9050610ca38282610c5c565b919050565b600067ffffffffffffffff821115610cc357610cc2610c2d565b5b610ccc82610c1c565b9050602081019050919050565b82818337600083830152505050565b6000610cfb610cf684610ca8565b610c8d565b905082815260208101848484011115610d1757610d16610c17565b5b610d22848285610cd9565b509392505050565b600082601f830112610d3f57610d3e610c12565b5b8135610d4f848260208601610ce8565b91505092915050565b60008060408385031215610d6f57610d6e610ba5565b5b6000610d7d85828601610bd0565b925050602083013567ffffffffffffffff811115610d9e57610d9d610baa565b5b610daa85828601610d2a565b9150509250929050565b600081519050919050565b600082825260208201905092915050565b6000819050602082019050919050565b610de981610baf565b82525050565b600073ffffffffffffffffffffffffffffffffffffffff82169050919050565b6000610e1a82610def565b9050919050565b610e2a81610e0f565b82525050565b60008115159050919050565b610e4581610e30565b82525050565b600081519050919050565b600082825260208201905092915050565b60005b83811015610e85578082015181840152602081019050610e6a565b83811115610e94576000848401525b50505050565b6000610ea582610e4b565b610eaf8185610e56565b9350610ebf818560208601610e67565b610ec881610c1c565b840191505092915050565b60006101a083016000830151610eec6000860182610de0565b506020830151610eff6020860182610e21565b506040830151610f126040860182610e21565b506060830151610f256060860182610de0565b506080830151610f386080860182610e3c565b5060a0830151610f4b60a0860182610de0565b5060c0830151610f5e60c0860182610e3c565b5060e0830151610f7160e0860182610de0565b50610100830151610f86610100860182610e3c565b50610120830151610f9b610120860182610de0565b50610140830151848203610140860152610fb58282610e9a565b915050610160830151848203610160860152610fd18282610e9a565b915050610180830151848203610180860152610fed8282610e9a565b9150508091505092915050565b60006110068383610ed3565b905092915050565b6000602082019050919050565b600061102682610db4565b6110308185610dbf565b93508360208202850161104285610dd0565b8060005b8581101561107e578484038952815161105f8582610ffa565b945061106a8361100e565b925060208a01995050600181019050611046565b50829750879550505050505092915050565b600060208201905081810360008301526110aa818461101b565b905092915050565b6110bb81610e0f565b81146110c657600080fd5b50565b6000813590506110d8816110b2565b92915050565b600080604083850312156110f5576110f4610ba5565b5b6000611103858286016110c9565b925050602083013567ffffffffffffffff81111561112457611123610baa565b5b61113085828601610d2a565b9150509250929050565b7f4e487b7100000000000000000000000000000000000000000000000000000000600052603260045260246000fd5b7f4e487b7100000000000000000000000000000000000000000000000000000000600052602260045260246000fd5b600060028204905060018216806111b057607f821691505b602082108114156111c4576111c3611169565b5b50919050565b7f4e487b7100000000000000000000000000000000000000000000000000000000600052601160045260246000fd5b600061120482610baf565b91507fffffffffffffffffffffffffffffffffffffffffffffffffffffffffffffffff821415611237576112366111ca565b5b60018201905091905056fea26469706673582212208dae117f7467fea4db33dbabbca0f594c463c624c561a9e7e7eabd141ce0c9bc64736f6c634300080c0033",
  "immutableReferences": {},
  "source": "// SPDX-License-Identifier: MIT\r\n\r\npragma solidity ^0.8.12;\r\n\r\ncontract PoliceComplaint {\r\n    uint256 complaint_no = 0;\r\n    struct ComplaintInfo {\r\n        uint256 complaint_id;\r\n        address complainer_address;\r\n        address policestation_address;\r\n        uint256 filed_date;\r\n        bool complaint_accepted;\r\n        uint256 accepted_date;\r\n        bool fir_status;\r\n        uint256 fir_date;\r\n        bool mark_as_spam;\r\n        uint256 markasspam_date;\r\n        string spam_reason_doc;\r\n        string complaint_doc_hash;\r\n        string FIR_doc_hash;\r\n    }\r\n\r\n    ComplaintInfo[] Complaints;\r\n\r\n    //Complainer filing complaint method\r\n    function fileComplaint(\r\n        address _policestationaddress,\r\n        string memory _complaintDocHash\r\n    ) public {\r\n        ComplaintInfo memory Complaint;\r\n        Complaint.complaint_id = complaint_no++;\r\n        Complaint.complainer_address = msg.sender;\r\n        Complaint.policestation_address = _policestationaddress;\r\n        Complaint.filed_date = block.timestamp;\r\n        Complaint.complaint_doc_hash = _complaintDocHash;\r\n        Complaint.complaint_accepted = false;\r\n        Complaint.fir_status = false;\r\n        Complaint.mark_as_spam = false;\r\n        Complaint.FIR_doc_hash = \"\";\r\n        Complaints.push(Complaint);\r\n    }\r\n\r\n    //Police methods\r\n    //set FIR status\r\n    function setFir(uint256 _id, string memory _FIRdoc) public {\r\n        require(Complaints[_id].policestation_address == msg.sender);\r\n        Complaints[_id].fir_status = true;\r\n        Complaints[_id].FIR_doc_hash = _FIRdoc;\r\n        Complaints[_id].fir_date = block.timestamp;\r\n    }\r\n\r\n    //set complaint acceptance\r\n    function setAcceptance(uint256 _id) public {\r\n        require(Complaints[_id].policestation_address == msg.sender);\r\n        Complaints[_id].complaint_accepted = true;\r\n        Complaints[_id].accepted_date = block.timestamp;\r\n    }\r\n\r\n    //set as spam\r\n    function setSpam(uint256 _id, string memory _spamdoc) public {\r\n        require(Complaints[_id].policestation_address == msg.sender);\r\n        require(\r\n            Complaints[_id].complaint_accepted != true &&\r\n                Complaints[_id].fir_status != true\r\n        );\r\n        Complaints[_id].mark_as_spam = true;\r\n        Complaints[_id].spam_reason_doc = _spamdoc;\r\n    }\r\n\r\n    //view method\r\n\r\n    function getComplainerComplaints()\r\n        public\r\n        view\r\n        returns (ComplaintInfo[] memory)\r\n    {\r\n        return (Complaints);\r\n    }\r\n}\r\n",
  "sourcePath": "C:\\Users\\jobin\\OneDrive\\Documents\\2022_IBM_Code_Challenge_DecentralisedPoliceComplaintRegister\\contracts\\SimpleStorage.sol",
  "compiler": {
    "name": "solc",
    "version": "0.8.12+commit.f00d7308.Emscripten.clang"
  },
  "schemaVersion": "3.4.6",
  "updatedAt": "2022-05-04T14:26:46.343Z",
  "devdoc": {
    "kind": "dev",
    "methods": {},
    "version": 1
  },
  "userdoc": {
    "kind": "user",
    "methods": {},
    "version": 1
  }
}